{
  "contractName": "Raffle",
  "abi": [
    {
      "constant": true,
      "inputs": [],
      "name": "ticketPrice",
      "outputs": [
        {
          "name": "",
          "type": "uint256"
        }
      ],
      "payable": false,
      "stateMutability": "view",
      "type": "function"
    },
    {
      "constant": true,
      "inputs": [],
      "name": "totalAmount",
      "outputs": [
        {
          "name": "",
          "type": "uint256"
        }
      ],
      "payable": false,
      "stateMutability": "view",
      "type": "function"
    },
    {
      "constant": true,
      "inputs": [],
      "name": "numberOfTickets",
      "outputs": [
        {
          "name": "",
          "type": "uint256"
        }
      ],
      "payable": false,
      "stateMutability": "view",
      "type": "function"
    },
    {
      "constant": true,
      "inputs": [],
      "name": "raffleOwner",
      "outputs": [
        {
          "name": "",
          "type": "address"
        }
      ],
      "payable": false,
      "stateMutability": "view",
      "type": "function"
    },
    {
      "constant": true,
      "inputs": [
        {
          "name": "",
          "type": "uint256"
        }
      ],
      "name": "prizeTiers",
      "outputs": [
        {
          "name": "numberOfWinners",
          "type": "uint8"
        },
        {
          "name": "amountOfWinning",
          "type": "uint256"
        }
      ],
      "payable": false,
      "stateMutability": "view",
      "type": "function"
    },
    {
      "constant": true,
      "inputs": [],
      "name": "currentTicket",
      "outputs": [
        {
          "name": "",
          "type": "uint256"
        }
      ],
      "payable": false,
      "stateMutability": "view",
      "type": "function"
    },
    {
      "constant": true,
      "inputs": [],
      "name": "feePercentage",
      "outputs": [
        {
          "name": "",
          "type": "uint256"
        }
      ],
      "payable": false,
      "stateMutability": "view",
      "type": "function"
    },
    {
      "constant": true,
      "inputs": [],
      "name": "numberOfPrizeTiers",
      "outputs": [
        {
          "name": "",
          "type": "uint8"
        }
      ],
      "payable": false,
      "stateMutability": "view",
      "type": "function"
    },
    {
      "constant": true,
      "inputs": [],
      "name": "totalBet",
      "outputs": [
        {
          "name": "",
          "type": "uint256"
        }
      ],
      "payable": false,
      "stateMutability": "view",
      "type": "function"
    },
    {
      "inputs": [
        {
          "name": "_orgAddress",
          "type": "address"
        },
        {
          "name": "_raffleOwner",
          "type": "address"
        },
        {
          "name": "_feePercentage",
          "type": "uint256"
        },
        {
          "name": "_totalAmount",
          "type": "uint256"
        },
        {
          "name": "_ticketPrice",
          "type": "uint256"
        },
        {
          "name": "_numberOfPrizeTiers",
          "type": "uint8"
        }
      ],
      "payable": false,
      "stateMutability": "nonpayable",
      "type": "constructor"
    },
    {
      "anonymous": false,
      "inputs": [
        {
          "indexed": false,
          "name": "_numberToBet",
          "type": "uint256"
        },
        {
          "indexed": false,
          "name": "_holder",
          "type": "address"
        },
        {
          "indexed": false,
          "name": "_count",
          "type": "uint256"
        }
      ],
      "name": "BuyTicket",
      "type": "event"
    },
    {
      "anonymous": false,
      "inputs": [
        {
          "indexed": false,
          "name": "_winNumber",
          "type": "uint256"
        },
        {
          "indexed": false,
          "name": "_amountOfWinning",
          "type": "uint256"
        },
        {
          "indexed": false,
          "name": "_prizeTier",
          "type": "uint8"
        }
      ],
      "name": "DrawWinners",
      "type": "event"
    },
    {
      "anonymous": false,
      "inputs": [
        {
          "indexed": false,
          "name": "_winner",
          "type": "address"
        },
        {
          "indexed": false,
          "name": "_winNumber",
          "type": "uint256"
        },
        {
          "indexed": false,
          "name": "_amountOfWinning",
          "type": "uint256"
        },
        {
          "indexed": false,
          "name": "_prizeTier",
          "type": "uint8"
        }
      ],
      "name": "WithdrawToWinner",
      "type": "event"
    },
    {
      "anonymous": false,
      "inputs": [
        {
          "indexed": false,
          "name": "_total",
          "type": "uint256"
        }
      ],
      "name": "WithdrawToOwner",
      "type": "event"
    },
    {
      "anonymous": false,
      "inputs": [
        {
          "indexed": false,
          "name": "_fee",
          "type": "uint256"
        }
      ],
      "name": "WithdrawFeeToSpawner",
      "type": "event"
    },
    {
      "constant": false,
      "inputs": [
        {
          "name": "_arrayNumberOfWinners",
          "type": "uint8[]"
        },
        {
          "name": "_arrayAmountOfWinning",
          "type": "uint256[]"
        }
      ],
      "name": "fillPrizeTiers",
      "outputs": [],
      "payable": false,
      "stateMutability": "nonpayable",
      "type": "function"
    },
    {
      "constant": false,
      "inputs": [
        {
          "name": "_count",
          "type": "uint256"
        }
      ],
      "name": "buyBulkTickets",
      "outputs": [],
      "payable": true,
      "stateMutability": "payable",
      "type": "function"
    },
    {
      "constant": false,
      "inputs": [],
      "name": "kill",
      "outputs": [],
      "payable": false,
      "stateMutability": "nonpayable",
      "type": "function"
    }
  ],
  "bytecode": "0x6080604052670de0b6b3a764000060035566470de4df8200006004556002600560006101000a81548160ff021916908360ff160217905550600060085560006009553480156200004e57600080fd5b5060405160c08062001d12833981018060405281019080805190602001909291908051906020019092919080519060200190929190805190602001909291908051906020019092919080519060200190929190505050336000806101000a81548173ffffffffffffffffffffffffffffffffffffffff021916908373ffffffffffffffffffffffffffffffffffffffff160217905550600073ffffffffffffffffffffffffffffffffffffffff168573ffffffffffffffffffffffffffffffffffffffff16141515156200018a576040517f08c379a00000000000000000000000000000000000000000000000000000000081526004018080602001828103825260178152602001807f73686f756c642062652076616c6964206164647265737300000000000000000081525060200191505060405180910390fd5b600073ffffffffffffffffffffffffffffffffffffffff168673ffffffffffffffffffffffffffffffffffffffff161415151562000230576040517f08c379a00000000000000000000000000000000000000000000000000000000081526004018080602001828103825260178152602001807f73686f756c642062652076616c6964206164647265737300000000000000000081525060200191505060405180910390fd5b606484101515620002a9576040517f08c379a000000000000000000000000000000000000000000000000000000000815260040180806020018281038252601d8152602001807f6665652073686f756c64206265206c657373207468616e20313030202500000081525060200191505060405180910390fd5b600083118015620002c4575069152d02c7e14af68000008311155b15620002d257826003819055505b662386f26fc1000082118015620002e95750828211155b15620002f757816004819055505b60018160ff161015801562000310575060648160ff1611155b15620003325780600560006101000a81548160ff021916908360ff1602179055505b43600b819055506000600102600c81600019169055508360078190555084600260006101000a81548173ffffffffffffffffffffffffffffffffffffffff021916908373ffffffffffffffffffffffffffffffffffffffff16021790555085600160006101000a81548173ffffffffffffffffffffffffffffffffffffffff021916908373ffffffffffffffffffffffffffffffffffffffff16021790555060045460016004546003540103811515620003e857fe5b04600a8190555050505050505061190d80620004056000396000f3006080604052600436106100ba576000357c0100000000000000000000000000000000000000000000000000000000900463ffffffff1680631209b1f6146100bf57806313ede0ea146100ea5780631a39d8ef1461010a57806341c0e1b51461013557806345745c101461014c57806347ce877a1461017757806353e9cece146101ce578063590b3e3c1461021c578063a001ecdd14610247578063fb51f82514610272578063fe5e1853146102a3578063fff93705146102ce575b600080fd5b3480156100cb57600080fd5b506100d4610321565b6040518082815260200191505060405180910390f35b61010860048036038101908080359060200190929190505050610327565b005b34801561011657600080fd5b5061011f610610565b6040518082815260200191505060405180910390f35b34801561014157600080fd5b5061014a610616565b005b34801561015857600080fd5b50610161610714565b6040518082815260200191505060405180910390f35b34801561018357600080fd5b5061018c61071a565b604051808273ffffffffffffffffffffffffffffffffffffffff1673ffffffffffffffffffffffffffffffffffffffff16815260200191505060405180910390f35b3480156101da57600080fd5b506101f960048036038101908080359060200190929190505050610740565b604051808360ff1660ff1681526020018281526020019250505060405180910390f35b34801561022857600080fd5b50610231610780565b6040518082815260200191505060405180910390f35b34801561025357600080fd5b5061025c610786565b6040518082815260200191505060405180910390f35b34801561027e57600080fd5b5061028761078c565b604051808260ff1660ff16815260200191505060405180910390f35b3480156102af57600080fd5b506102b861079f565b6040518082815260200191505060405180910390f35b3480156102da57600080fd5b5061031f6004803603810190808035906020019082018035906020019190919293919293908035906020019082018035906020019190919293919293905050506107a5565b005b60045481565b6000600a546008541015156103a4576040517f08c379a00000000000000000000000000000000000000000000000000000000081526004018080602001828103825260188152602001807f726166666c6520616d6f756e742069732072656163686564000000000000000081525060200191505060405180910390fd5b81600454023414151561041f576040517f08c379a000000000000000000000000000000000000000000000000000000000815260040180806020018281038252601a8152602001807f7469636b657420636f7374206973206e6f7420636f727265637400000000000081525060200191505060405180910390fd5b60009050600090505b818110156105815760086000815480929190600101919050555033600d6000600854815260200190815260200160002060006101000a81548173ffffffffffffffffffffffffffffffffffffffff021916908373ffffffffffffffffffffffffffffffffffffffff1602179055506104a4600954600454610ba8565b600981905550600a546008541015156104bc57610581565b600b544044600c54604051602001808460001916600019168152602001838152602001826000191660001916815260200193505050506040516020818303038152906040526040518082805190602001908083835b6020831015156105365780518252602082019150602081019050602083039250610511565b6001836020036101000a0380198251168184511680821785525050505050509050019150506040518091039020600c816000191690555043600b819055508080600101915050610428565b600a5460085410151561059757610596610c32565b5b7f9df6c7b3dde09a81ddfae6fb8f165a5d4e62287c79a1faf24bc24790862043616008543383604051808481526020018373ffffffffffffffffffffffffffffffffffffffff1673ffffffffffffffffffffffffffffffffffffffff168152602001828152602001935050505060405180910390a15050565b60035481565b6000809054906101000a900473ffffffffffffffffffffffffffffffffffffffff1673ffffffffffffffffffffffffffffffffffffffff163373ffffffffffffffffffffffffffffffffffffffff161415156106da576040517f08c379a00000000000000000000000000000000000000000000000000000000081526004018080602001828103825260118152602001807f73686f756c6420626520737061776e657200000000000000000000000000000081525060200191505060405180910390fd5b6000809054906101000a900473ffffffffffffffffffffffffffffffffffffffff1673ffffffffffffffffffffffffffffffffffffffff16ff5b600a5481565b600260009054906101000a900473ffffffffffffffffffffffffffffffffffffffff1681565b60068181548110151561074f57fe5b90600052602060002090600302016000915090508060010160009054906101000a900460ff16908060020154905082565b60085481565b60075481565b600560009054906101000a900460ff1681565b60095481565b60008060009054906101000a900473ffffffffffffffffffffffffffffffffffffffff1673ffffffffffffffffffffffffffffffffffffffff163373ffffffffffffffffffffffffffffffffffffffff1614151561086b576040517f08c379a00000000000000000000000000000000000000000000000000000000081526004018080602001828103825260118152602001807f73686f756c6420626520737061776e657200000000000000000000000000000081525060200191505060405180910390fd5b600560009054906101000a900460ff1660ff16600680549050141515156108fa576040517f08c379a000000000000000000000000000000000000000000000000000000000815260040180806020018281038252601b8152602001807f7072697a652074696572732061726520616c726561647920736574000000000081525060200191505060405180910390fd5b600560009054906101000a900460ff1660ff16858590501415156109ac576040517f08c379a00000000000000000000000000000000000000000000000000000000081526004018080602001828103825260248152602001807f73686f756c642062652073616d65206173206e756d6265724f665072697a655481526020017f696572730000000000000000000000000000000000000000000000000000000081525060400191505060405180910390fd5b600560009054906101000a900460ff1660ff1683839050141515610a5e576040517f08c379a00000000000000000000000000000000000000000000000000000000081526004018080602001828103825260248152602001807f73686f756c642062652073616d65206173206e756d6265724f665072697a655481526020017f696572730000000000000000000000000000000000000000000000000000000081525060400191505060405180910390fd5b600090505b600560009054906101000a900460ff1660ff168160ff161015610ba157600660606040519081016040528087878560ff168181101515610a9f57fe5b9050602002013560ff1660ff16604051908082528060200260200182016040528015610ada5781602001602082028038833980820191505090505b50815260200187878560ff168181101515610af157fe5b9050602002013560ff1660ff16815260200185858560ff168181101515610b1457fe5b90506020020135815250908060018154018082558091505090600182039060005260206000209060030201600090919290919091506000820151816000019080519060200190610b6592919061186f565b5060208201518160010160006101000a81548160ff021916908360ff160217905550604082015181600201555050508080600101915050610a63565b5050505050565b6000808284019050838110151515610c28576040517f08c379a000000000000000000000000000000000000000000000000000000000815260040180806020018281038252600d8152602001807f73616665416464206572726f720000000000000000000000000000000000000081525060200191505060405180910390fd5b8091505092915050565b600080600080600354600954101515610ffd57600560009054906101000a900460ff1660ff16600680549050141515610cf9576040517f08c379a00000000000000000000000000000000000000000000000000000000081526004018080602001828103825260238152602001807f636f6e7472616374206e65656473207265717569726564207072697a6520746981526020017f657273000000000000000000000000000000000000000000000000000000000081525060400191505060405180910390fd5b600b544044600c54604051602001808460001916600019168152602001838152602001826000191660001916815260200193505050506040516020818303038152906040526040518082805190602001908083835b602083101515610d735780518252602082019150602081019050602083039250610d4e565b6001836020036101000a038019825116818451168082178552505050505050905001915050604051809103902093506001600a548560019004811515610db557fe5b06019250600091505b600560009054906101000a900460ff1660ff168260ff161015610ff457600090505b60068260ff16815481101515610df257fe5b906000526020600020906003020160010160009054906101000a900460ff1660ff168160ff161015610fe7575b610e2883611003565b15610ee857600b5440846040516020018083600019166000191681526020018260001916600019168152602001925050506040516020818303038152906040526040518082805190602001908083835b602083101515610e9d5780518252602082019150602081019050602083039250610e78565b6001836020036101000a038019825116818451168082178552505050505050905001915050604051809103902093506001600a548560019004811515610edf57fe5b06019250610e1f565b8260068360ff16815481101515610efb57fe5b90600052602060002090600302016000018260ff16815481101515610f1c57fe5b90600052602060002001819055507fe895bdd8b51ed5c752378c16d6633731f7de2e5434b9f187f506212761cd55c560068360ff16815481101515610f5d57fe5b90600052602060002090600302016000018260ff16815481101515610f7e57fe5b906000526020600020015460068460ff16815481101515610f9b57fe5b90600052602060002090600302016002015460018501604051808481526020018381526020018260ff1660ff168152602001935050505060405180910390a18080600101915050610de0565b8180600101925050610dbe565b610ffc611130565b5b50505050565b60008060008091505b600560009054906101000a900460ff1660ff168260ff16101561112457600090505b60068260ff1681548110151561104057fe5b906000526020600020906003020160010160009054906101000a900460ff1660ff168160ff16101561111657600060068360ff1681548110151561108057fe5b90600052602060002090600302016000018260ff168154811015156110a157fe5b906000526020600020015414156110bb5760009250611129565b8360068360ff168154811015156110ce57fe5b90600052602060002090600302016000018260ff168154811015156110ef57fe5b906000526020600020015414156111095760019250611129565b808060010191505061102e565b81806001900392505061100c565b600092505b5050919050565b60008060006003546009541015156116a657600560009054906101000a900460ff1660ff166006805490501415156111f6576040517f08c379a00000000000000000000000000000000000000000000000000000000081526004018080602001828103825260238152602001807f636f6e7472616374206e65656473207265717569726564207072697a6520746981526020017f657273000000000000000000000000000000000000000000000000000000000081525060400191505060405180910390fd5b600092505b600560009054906101000a900460ff1660ff168360ff1610156114d857600091505b60068360ff1681548110151561122f57fe5b906000526020600020906003020160010160009054906101000a900460ff1660ff168260ff1610156114cb57600d600060068560ff1681548110151561127157fe5b90600052602060002090600302016000018460ff1681548110151561129257fe5b9060005260206000200154815260200190815260200160002060009054906101000a900473ffffffffffffffffffffffffffffffffffffffff1673ffffffffffffffffffffffffffffffffffffffff166108fc60068560ff168154811015156112f757fe5b9060005260206000209060030201600201549081150290604051600060405180830381858888f19350505050158015611334573d6000803e3d6000fd5b5061136460095460068560ff1681548110151561134d57fe5b9060005260206000209060030201600201546116ab565b6009819055507f414035a07a9c00e80201184024fb94b28504d530ac844b65f7b869046222017d600d600060068660ff168154811015156113a157fe5b90600052602060002090600302016000018560ff168154811015156113c257fe5b9060005260206000200154815260200190815260200160002060009054906101000a900473ffffffffffffffffffffffffffffffffffffffff1660068560ff1681548110151561140e57fe5b90600052602060002090600302016000018460ff1681548110151561142f57fe5b906000526020600020015460068660ff1681548110151561144c57fe5b90600052602060002090600302016002015460018701604051808573ffffffffffffffffffffffffffffffffffffffff1673ffffffffffffffffffffffffffffffffffffffff1681526020018481526020018381526020018260ff1660ff16815260200194505050505060405180910390a1818060010192505061121d565b82806001019350506111fb565b600060075411156115b8576114fb6114f4600954600754611735565b60646117dc565b90506000600781905550600160009054906101000a900473ffffffffffffffffffffffffffffffffffffffff1673ffffffffffffffffffffffffffffffffffffffff166108fc829081150290604051600060405180830381858888f1935050505015801561156d573d6000803e3d6000fd5b5061157a600954826116ab565b6009819055507fe5ab388c2ca6231c7f66312e6e37d91db8b4e21db861538aac576d2d7959e2c3816040518082815260200191505060405180910390a15b600260009054906101000a900473ffffffffffffffffffffffffffffffffffffffff1673ffffffffffffffffffffffffffffffffffffffff166108fc6009549081150290604051600060405180830381858888f19350505050158015611622573d6000803e3d6000fd5b507fe2545a40deb08fdd272a905111e915edfcdd5a17e89efe28afe7c4bf266a36916009546040518082815260200191505060405180910390a1600060098190555060006008819055506000809054906101000a900473ffffffffffffffffffffffffffffffffffffffff1673ffffffffffffffffffffffffffffffffffffffff16ff5b505050565b600080838311151515611726576040517f08c379a000000000000000000000000000000000000000000000000000000000815260040180806020018281038252600d8152602001807f73616665537562206572726f720000000000000000000000000000000000000081525060200191505060405180910390fd5b82840390508091505092915050565b600080600084141561174a57600091506117d5565b828402905082848281151561175b57fe5b041415156117d1576040517f08c379a000000000000000000000000000000000000000000000000000000000815260040180806020018281038252600d8152602001807f736166654d756c206572726f720000000000000000000000000000000000000081525060200191505060405180910390fd5b8091505b5092915050565b600080600083111515611857576040517f08c379a000000000000000000000000000000000000000000000000000000000815260040180806020018281038252600d8152602001807f73616665446976206572726f720000000000000000000000000000000000000081525060200191505060405180910390fd5b828481151561186257fe5b0490508091505092915050565b8280548282559060005260206000209081019282156118ab579160200282015b828111156118aa57825182559160200191906001019061188f565b5b5090506118b891906118bc565b5090565b6118de91905b808211156118da5760008160009055506001016118c2565b5090565b905600a165627a7a723058201eea8de18eeb63dee1ea677ad95e47210ece791dcd3d221aeeba4a1651cd53b40029",
  "source": "pragma solidity >=0.4.21 <0.6.0;\n\n/**\n * @title Safe math\n */\ncontract SafeMath {\n    function safeMul(uint256 _a, uint256 _b) internal pure returns (uint256) {\n        if (_a == 0) {\n            return 0;\n        }\n\n        uint256 c = _a * _b;\n        require(c / _a == _b, \"safeMul error\");\n\n        return c;\n    }\n\n    function safeDiv(uint256 _a, uint256 _b) internal pure returns (uint256) {\n        require(_b > 0, \"safeDiv error\");\n        uint256 c = _a / _b;\n\n        return c;\n    }\n\n    function safeSub(uint256 _a, uint256 _b) internal pure returns (uint256) {\n        require(_b <= _a, \"safeSub error\");\n        uint256 c = _a - _b;\n\n        return c;\n    }\n\n    function safeAdd(uint256 _a, uint256 _b) internal pure returns (uint256) {\n        uint256 c = _a + _b;\n        require(c >= _a, \"safeAdd error\");\n\n        return c;\n    }\n}\n\n/**\n * @title Contract to bet Ether for a number and win randomly when the number of bets is met.\n * @author phanlancer\n */\ncontract Raffle is SafeMath {\n    address spawner; // (RafflePanda company) who spawn the Raffle contract. It's different from the Raffle Owner\n    address orgAddress; // Raffle Panda Company address. Fees are sent to this address\n\n    // Structure of prize tier for winners\n    struct PrizeTier {\n        // winning number - your lucky\n        uint[] winNumbers;\n        // number of winners for the prize tier\n        uint8 numberOfWinners;\n        // amount of the winnings per user per tier\n        uint amountOfWinning;\n    }\n\n    // Raffle parameters\n    address public raffleOwner; // address to fund the raised money to, who wanna raise the funds\n    uint public totalAmount = 1 ether; // Default 1 ether. The total amount of the raffle\n    uint public ticketPrice = 20 finney; // Default 0.02 ether. The cost of the ticket\n    uint8 public numberOfPrizeTiers = 2; // Default 2 tiers. Number of prize tiers\n    PrizeTier[] public prizeTiers; // Prize tiers\n    uint public feePercentage;\n\n    // Raffle limitation\n    uint private constant MIN_TICKET_COST = 10 finney; // Minimum ticket cost is 0.01 ether\n    uint private constant MAX_RAFFLE_AMOUNT = 100000 ether; // Maximum amount of ether which this raffle can raise\n    uint private constant MAX_NUMBER_PRIZE_TIERS = 100; // Maximum number of prize tiers\n\n    // Raffle variables\n    uint public currentTicket = 0;\n    uint public totalBet = 0; // The total amount of Ether raised for this current raffle\n    uint public numberOfTickets; // = totalAmount / ticketPrice\n\n    // For Random generation\n    uint private latestBlockNumber;\n    bytes32 private cumulativeHash;\n\n    mapping(uint => address) numberBetPlayers; // Each number has a player.\n\n    // event when buy a ticket\n    event BuyTicket(uint _numberToBet, address _holder, uint _count);\n    // event when draw winners per tier\n    event DrawWinners(uint _winNumber, uint _amountOfWinning, uint8 _prizeTier);\n    // event when transfer prize to a winner\n    event WithdrawToWinner(address _winner, uint _winNumber, uint _amountOfWinning, uint8 _prizeTier);\n    // event when withdraw raised funds to the raffle owner\n    event WithdrawToOwner(uint _total);\n    // distribute prize to winners\n    event WithdrawFeeToSpawner(uint _fee);\n\n    /**\n    * @dev Throws if called by any account other than the spawner.\n    */\n    modifier onlySpawner() {\n        require(msg.sender == spawner, \"should be spawner\");\n        _;\n    }\n\n    modifier isFilledPrizeTiers() {\n        require(prizeTiers.length == numberOfPrizeTiers, \"contract needs required prize tiers\");\n        _;\n    }\n    \n    // Modifier to only allow the execution of functions when the bets are completed\n    modifier onEndGame() {\n        if(totalBet >= totalAmount) _;\n    }\n\n    /**\n    * @notice Constructor that's used to configure the minimum bet per game and the max amount of bets\n    * @param _totalAmount The total amount of the raffle\n    * @param _ticketPrice The cost of the ticket\n    * @param _numberOfPrizeTiers Number of prize tiers\n    */\n    constructor(\n        address _orgAddress,\n        address _raffleOwner,\n        uint _feePercentage,\n        uint _totalAmount,\n        uint _ticketPrice,\n        uint8 _numberOfPrizeTiers\n    ) public {\n        spawner = msg.sender;\n\n        require(_raffleOwner != address(0), \"should be valid address\");\n        require(_orgAddress != address(0), \"should be valid address\");\n        require(_feePercentage < 100, \"fee should be less than 100 %\");\n\n        if(_totalAmount > 0 && _totalAmount <= MAX_RAFFLE_AMOUNT) totalAmount = _totalAmount;\n        if(_ticketPrice > MIN_TICKET_COST && _ticketPrice <= _totalAmount) ticketPrice = _ticketPrice;\n        if(_numberOfPrizeTiers >= 1 && _numberOfPrizeTiers <= MAX_NUMBER_PRIZE_TIERS) numberOfPrizeTiers = _numberOfPrizeTiers;\n\n        latestBlockNumber = block.number;\n        cumulativeHash = bytes32(0);\n\n        feePercentage = _feePercentage;\n        raffleOwner = _raffleOwner;\n        orgAddress = _orgAddress;\n        numberOfTickets = (totalAmount + ticketPrice - 1) / ticketPrice;\n    }\n\n    /**\n    * @notice After contructor is called fillPrizeTiers should be called to fill prize tiers\n    * @param _arrayNumberOfWinners array of number of winners per tier\n    * @param _arrayAmountOfWinning array of amount of winnings per player per tier\n    */\n    function fillPrizeTiers(uint8[] _arrayNumberOfWinners, uint[] _arrayAmountOfWinning) external onlySpawner {\n        require(prizeTiers.length != numberOfPrizeTiers, \"prize tiers are already set\");\n        require(_arrayNumberOfWinners.length == numberOfPrizeTiers, \"should be same as numberOfPrizeTiers\");\n        require(_arrayAmountOfWinning.length == numberOfPrizeTiers, \"should be same as numberOfPrizeTiers\");\n\n        for(uint8 i = 0; i < numberOfPrizeTiers; i++) {\n            prizeTiers.push(PrizeTier({\n                winNumbers: new uint[](_arrayNumberOfWinners[i]),\n                numberOfWinners: _arrayNumberOfWinners[i],\n                amountOfWinning: _arrayAmountOfWinning[i]\n            }));\n        }\n    }\n\n    /**\n    * @notice Buy bulk tickets at once\n    * @param _count Count of bulk tickets\n    */\n    function buyBulkTickets(uint _count) external payable {\n        // Check that the max amount of bets hasn't been met yet\n        require(currentTicket < numberOfTickets, \"raffle amount is reached\");\n        // Check if ticket cost is correct\n        require(msg.value == ticketPrice * _count, \"ticket cost is not correct\");\n        \n        uint i = 0;\n        for (i = 0; i < _count; i++) {\n            currentTicket ++;\n            // The player msg.sender has bet for this number 'currentTicket'\n            numberBetPlayers[currentTicket] = msg.sender;\n            // calculate total bet for this raffle\n            totalBet = safeAdd(totalBet, ticketPrice);\n            \n            if (currentTicket >= numberOfTickets) {\n                break;\n            }\n        \n            cumulativeHash = keccak256(abi.encodePacked(blockhash(latestBlockNumber), block.difficulty, cumulativeHash));\n            latestBlockNumber = block.number;\n        }\n        \n        if (currentTicket >= numberOfTickets) {\n            drawWinners();\n        }\n        \n        emit BuyTicket(currentTicket, msg.sender, i);\n    }\n\n    /**\n    @notice check if random number is duplicated\n    */\n    function checkDupRandom(uint rand) private view returns(bool) {\n        uint8 i;\n        uint8 j;\n        for(i = 0; i < numberOfPrizeTiers; i--) {\n            for(j = 0; j < prizeTiers[i].numberOfWinners; j++) {\n                // doing for in the same sequence as drawwinners, so if it meets first empty value, it's okay to return false\n                if(prizeTiers[i].winNumbers[j] == uint(0)) return false;\n\n                if(prizeTiers[i].winNumbers[j] == rand) return true;\n            }\n        }\n        return false;\n    }\n\n    /**\n    * @notice Generates a random number between 1 and numberOfTickets both inclusive.\n    */\n    function drawWinners() private onEndGame isFilledPrizeTiers {\n        // cumulativeHash will be used to generate random numbers\n        bytes32 baseHash = keccak256(abi.encodePacked(blockhash(latestBlockNumber), block.difficulty, cumulativeHash));\n        uint randomNumber = uint(baseHash) % numberOfTickets + 1;\n\n        uint8 i;\n        uint8 j;\n        for(i = 0; i < numberOfPrizeTiers; i++) {\n            for(j = 0; j < prizeTiers[i].numberOfWinners; j++) {\n                // make sure the win number is not duplicated for different tiers\n                while(checkDupRandom(randomNumber)) {\n                    // update hash for random\n                    baseHash = keccak256(abi.encodePacked(blockhash(latestBlockNumber), baseHash));\n                    // generate random number and save it in PrizeTier struct. the random number will be in a range of 1 to numberOfTickets\n                    randomNumber = uint(baseHash) % numberOfTickets + 1;\n                }\n                prizeTiers[i].winNumbers[j] = randomNumber;\n                // emit event when draw winners per tier\n                emit DrawWinners(prizeTiers[i].winNumbers[j], prizeTiers[i].amountOfWinning, i + 1);\n            }\n        }\n\n        distributePrizes();\n    }\n\n    /**\n    * @notice Sends the corresponding Ether to each winner then deletes all the\n    * players for the next game and resets the `totalBet` and `currentTicket`\n    */\n    function distributePrizes() private onEndGame isFilledPrizeTiers {\n        // Loop through all the winners to send the corresponding prize for each one\n        uint8 i;\n        uint8 j;\n        for(i = 0; i < numberOfPrizeTiers; i++) {\n            for(j = 0; j < prizeTiers[i].numberOfWinners; j++) {\n                // withdraw prize to winner's address\n                numberBetPlayers[prizeTiers[i].winNumbers[j]].transfer(prizeTiers[i].amountOfWinning);\n                totalBet = safeSub(totalBet, prizeTiers[i].amountOfWinning);\n                // event log when withdraw the prize to a winner\n                emit WithdrawToWinner(\n                    numberBetPlayers[prizeTiers[i].winNumbers[j]],\n                    prizeTiers[i].winNumbers[j],\n                    prizeTiers[i].amountOfWinning, i + 1);\n            }\n        }\n\n        // pay fee to RafflePanda company\n        if(feePercentage > 0) {\n            uint fee;\n            fee = safeDiv(safeMul(totalBet, feePercentage), 100);\n            feePercentage = 0;\n            orgAddress.transfer(fee);\n            totalBet = safeSub(totalBet, fee);\n\n            // event log when withdraw fees to the org address\n            emit WithdrawFeeToSpawner(fee);\n        }\n\n        // raised funds are sent to the raffle owner(fundraiser)\n        raffleOwner.transfer(totalBet);\n        emit WithdrawToOwner(totalBet);\n        totalBet = 0;\n        currentTicket = 0;\n\n        // after distribute prizes kill the contract\n        selfdestruct(spawner);\n    }\n\n    /**\n    * @notice kill this contract whenever you want\n    */\n    function kill() public onlySpawner {\n        selfdestruct(spawner);\n    }\n}\n",
  "sourcePath": "/Volumes/Data/Workspace/progress/stuart/RafflePanda-contract/contracts/Raffle.sol",
  "compiler": {
    "name": "solc",
    "version": "0.4.23+commit.124ca40d.Emscripten.clang"
  },
  "schemaVersion": "3.0.1",
  "updatedAt": "2019-02-28T13:25:32.694Z",
  "devdoc": {
    "author": "phanlancer",
    "methods": {
      "buyBulkTickets(uint256)": {
        "params": {
          "_count": "Count of bulk tickets"
        }
      },
      "fillPrizeTiers(uint8[],uint256[])": {
        "params": {
          "_arrayAmountOfWinning": "array of amount of winnings per player per tier",
          "_arrayNumberOfWinners": "array of number of winners per tier"
        }
      }
    },
    "title": "Contract to bet Ether for a number and win randomly when the number of bets is met."
  },
  "userdoc": {
    "methods": {
      "buyBulkTickets(uint256)": {
        "notice": "Buy bulk tickets at once"
      },
      "fillPrizeTiers(uint8[],uint256[])": {
        "notice": "After contructor is called fillPrizeTiers should be called to fill prize tiers"
      },
      "kill()": {
        "notice": "kill this contract whenever you want"
      }
    }
  }
}